S01B0000507573685F627574746F6E5F706F6C6C696E672E737265631A
S11300000C943E000C9448000C9448000C94480056
S11300100C9448000C9448000C9448000C9448003C
S11300200C9448000C9448000C9448000C9448002C
S11300300C9448000C9448000C9448000C9448001C
S11300400C9448000C9448000C9448000C9448000C
S11300500C9448000C9448000C9448000C944800FC
S11300600C9448000C94480064005300660055004A
S1130070570059005B005D005F00610011241FBE42
S1130080CFEFD8E0DEBFCDBF0E9468000C948300A0
S11300900C94000090E08A309105A8F4FC01EC5C1B
S11300A0FF4F0C947D0086E008958FE4089586E662
S11300B008958DE608958DE7089587E008958FE704
S11300C008958FE6089508958FE308958BE50895C4
S11300D020988AB18FEF8AB9C0E08C2F0E944A0021
S11300E08BB9189BCF5FCA3009F4C0E087EA91E668
S11300F00197F1F700C00000F0CFEE0FFF1F05904D
S10D0100F491E02D0994F894FFCF68
S9030000FC
