:100000000C943E000C9448000C9448000C9448005A
:100010000C9448000C9448000C9448000C94480040
:100020000C9448000C9448000C9448000C94480030
:100030000C9448000C9448000C9448000C94480020
:100040000C9448000C9448000C9448000C94480010
:100050000C9448000C9448000C9448000C94480000
:100060000C9448000C94480064005300660055004E
:10007000570059005B005D005F00610011241FBE46
:10008000CFEFD8E0DEBFCDBF0E9468000C9488009F
:100090000C94000090E08A309105A8F4FC01EC5C1F
:1000A000FF4F0C94820086E008958FE4089586E661
:1000B00008958DE608958DE7089587E008958FE708
:1000C00008958FE6089508958FE308958BE50895C8
:1000D0008FEF8AB980E00E944A008BB9C1E001C06D
:1000E000C0E02FE38DE093E0215080409040E1F7A5
:1000F00000C000008C2F0E944A008BB9CF5FCA302D
:1001000081F7EECFEE0FFF1F0590F491E02D0994DB
:04011000F894FFCF91
:00000001FF
