S01D0000507573685F627574746F6E5F696E746572727570742E7372656320
S11300000C943E000C9450000C9450000C9470001E
S11300100C9450000C9450000C9450000C9450001C
S11300200C9450000C9450000C9450000C9450000C
S11300300C9450000C9450000C9450000C945000FC
S11300400C9450000C9450000C9450000C945000EC
S11300500C9450000C9450000C9450000C945000DC
S11300600C9450000C9450006C005B006E005D001A
S11300705F006100630065006700690011241FBE12
S1130080CFEFD8E0DEBFCDBF21E0A0E0B1E001C0FA
S11300901D92A130B207E1F70E9487000C94A200E0
S11300A00C94000090E08A309105A8F4FC01EC5C0B
S11300B0FF4F0C949C0086E008958FE4089586E633
S11300C008958DE608958DE7089587E008958FE7F4
S11300D008958FE6089508958FE308958BE50895B4
S11300E01F920F920FB60F9211248F9380910001EB
S11300F08F5F80930001809100018A3011F4109287
S113010000018F910F900FBE0F901F9018952098AB
S11301108FEF8AB981E08093680080936B007894B4
S1130120809100010E9452008BB987EA91E6019701
S1130130F1F700C00000F4CFEE0FFF1F0590F4911B
S10B0140E02D0994F894FFCFAF
S9030000FC
