S01C00004C45445F375F7365676D656E745F4943373434372E737265638A
S11300000C9434000C943E000C943E000C943E007E
S11300100C943E000C943E000C943E000C943E0064
S11300200C943E000C943E000C943E000C943E0054
S11300300C943E000C943E000C943E000C943E0044
S11300400C943E000C943E000C943E000C943E0034
S11300500C943E000C943E000C943E000C943E0024
S11300600C943E000C943E0011241FBECFEFD8E048
S1130070DEBFCDBF0E9440000C9459000C940000D8
S11300808FEF8AB91BB88BB18BB981E001C080E0D6
S11300902FE33DE093E0215030409040E1F700C071
S11300A000001BB89BB1982B9BB98F5F8A3081F7F6
S10900B0EECFF894FFCF2F
S9030000FC
